S00E0000494E413231392E73726563A2
S11300000C94C9000C94E6000C94E6000C94E600F1
S11300100C94E6000C94E6000C94E6000C94E600C4
S11300200C94E6000C94E6000C94E6000C94E600B4
S11300300C94E6000C94E6000C94E6000C94400545
S11300400C94E6000C94E6000C94E6000C94E60094
S11300500C94E6000C94E6000C94E6000C94E60084
S11300600C94E6000C94E6000C94E6000C94E60074
S11300700C94E6000C94E6000C94E6000C94E60064
S11300800C94E6000C94E6000C94E6000C94E60054
S11300906E616E00696E660000407A10F35A00A02B
S11300A0724E18090010A5D4E80000E8764817003D
S11300B000E40B54020000CA9A3B000000E1F5057D
S11300C0000080969800000040420F000000A086C7
S11300D001000000102700000000E80300000000F9
S11300E06400000000000A0000000000010000009D
S11300F000002C76D888DC674F0823DFC1DFAE59B7
S1130100E1B1B796E5E3E453C63AE651997696E849
S1130110E6C28426EB898C9B62ED407C6FFCEFBCCD
S11301209C9F40F2BAA56FA5F490055A2AF75C93F8
S11301306B6CF9676DC11BFCE0E40D47FEF520E62E
S1130140B500D0ED902E0300943577050080841E11
S1130150080000204E0A000000C80C333333330F6C
S1130160986E12831141EF8D2114893BE65516CF09
S1130170FEE6DB18D1844B381BF77C1D901DA4BB15
S1130180E424203284725E228100C9F124ECA1E5CA
S11301903D2711241FBECFEFCDBFDFE3DEBF18E242
S11301A0A0E0B8E2E6ECFAE102C005900D92A233B9
S11301B0B107D9F728E2A2E3B8E201C01D92A9363B
S11301C0B207E1F70E94C7010C94260D0C940000BD
S11301D00E94AA020895CF93DF93EC0180E090E19E
S11301E0A0E0B0E089839A83AB83BC838AE090E08B
S11301F0A0E0B0E08D839E83AF83B88782E090E077
S1130200A0E0B0E089879A87AB87BC8740E050E1E3
S113021065E088810E94AF054FE959E360E0888179
S11302200E94AF05DF91CF910895CF93DF93EC0146
S113023080E090E2A0E0B0E089839A83AB83BC8342
S113024084E190E0A0E0B0E08D839E83AF83B88723
S113025081E090E0A0E0B0E089879A87AB87BC8713
S113026040E050E265E088810E94AF054FE951E02B
S113027060E088810E94AF05DF91CF9108950E94CC
S1130280EB00089561E0FC0180810E947C05BC01C3
S1130290990F880B990B0E94E1062AE037ED43E29F
S11302A05CE30E946D07089562E0FC0180810E9476
S11302B07C05969587959695879596958795BC0127
S11302C0660F771F660F771F072E000C880B990B9C
S11302D00E94E1062FE632E143E85AE30E946D07EB
S11302E00895CF92DF92EF92FF92CF93DF93EC01C8
S11302F049815A8165E088810E94AF0564E0888164
S11303000E947C05BC01990F880B990B0E94E106A1
S11303106B017C016D817E818F8198850E94DF064F
S11303209B01AC01C701B6010E946D06DF91CF911C
S1130330FF90EF90DF90CF900895CF92DF92EF92ED
S1130340FF92CF93DF93EC0149815A8165E0888164
S11303500E94AF0563E088810E947C05BC01990F6F
S1130360880B990B0E94E1066B017C0169857A85F3
S11303708B859C850E94DF06A70196010E946D076C
S1130380DF91CF91FF90EF90DF90CF9008950E947E
S1130390E800789480E48093562886E598E20E94E9
S11303A03F0186E598E20E941501C0E5DAE586E59D
S11303B098E20E944201262E372E482E592E86E5B9
S11303C098E20E945401662E772E882E992E86E597
S11303D098E20E947101D62EC72EB82EA92E86E56A
S11303E098E20E949D01162F072FF82EE92E9F9266
S11303F08F927F926F92DF93CF930E94B20C5F92A1
S11304004F923F922F9288E69AE59F938F930E9492
S1130410B20C20E030E04AE754E4622D732D842DC1
S1130420952D0E946D06262D372D482D592D0E949D
S113043001069F938F937F936F9383E89AE59F932D
S11304408F930E94B20CAF92BF92CF92DF928CE94D
S11304509AE59F938F930E94B20CEF92FF920F93B1
S11304601F9381EB9AE59F938F930E94B20C8AE2CB
S11304709CE22AE0815090402040E1F700008DB7D3
S11304809EB74E968DBF9EBF92CF80E0089580E0C8
S1130490089580E00895E0E1F4E08081886081932C
S11304A0E83184E0F807C9F7E0E3F4E0808188608C
S11304B08193E83384E0F807C9F7E0E5F4E080814C
S11304C088608193E83584E0F807C9F7E0E7F4E051
S11304D0808188608193E83784E0F807C9F7E0E910
S11304E0F4E0808188608193E83984E0F807C9F7F3
S11304F0E0EBF4E0808188608193E83B84E0F807D6
S1130500C9F70895A198E1EBF4E08081877F8083A7
S1130510A09AA8980E94E3050895039A0B98E3E132
S1130520F4E08081877F808380818F7780838081DE
S1130530887F8083029A0A98E2E1F4E08081877FD1
S1130540808380818F7780838081887F80830E94ED
S1130550AB0408950E944B020E9447020E9482024B
S11305600E9449020E94E1050E948D020E944502F8
S11305700895E0EAF8E0848188608483858181605D
S11305808583E2E3F8E280818E7F808313868EE0A8
S11305900895E2E3F8E280818E7F8083138680E011
S11305A00895E2E3F8E28081886080838181880F86
S11305B081608093A70884E008950E94D102089581
S11305C00E94D1020895E2E3F8E28081886080838A
S11305D08181880F8093A70883E008950E94E30235
S11305E00895E0EAF8E084818B7F848384E00895B1
S11305F0E0EAF8E084818B7F848383E00895E0EA75
S1130600F8E084818460848388E00895E0EAF8E077
S1130610848188608483858181608583E2E3F8E254
S113062080818E7F808382E083878EE00895CF93DC
S1130630DF93E0EAF8E08581806C8583809132283D
S113064083FF07C08091A50884FF03C08FE08093D7
S11306503C288091A50883FF03C080E180933C2857
S11306608091A50882FF03C081E180933C28C2E306
S1130670D8E2EA85F0E0EE0FFF1FE050F84D01905C
S1130680F081E02D09958A87DF91CF91089581E06B
S1130690089585E008956115710581F090E0FC01ED
S11306A0EE0FFF1FE25CF74D60837183880F991F83
S11306B0FC01E65BF74D40835183089590E0FC0113
S11306C0EE0FFF1FE25CF74D27E433E02083318314
S11306D0880F991FFC01E65BF74D10821182089583
S11306E0E0EAF8E0858188608583A2E3B8E282E0ED
S11306F01B968C931B971E96ED91FC911F975A960F
S11307008D919C915B970995823019F0833021F08B
S113071006C00E94D10208950E94E30208950E9437
S1130720B9020895E0EAF8E08481846084838481D6
S113073083608483E2E3F8E280818E7F8083138682
S113074080E00895CF93DF93E2E3F8E28081877F2E
S1130750808384819581019731F4E0EAF8E0848113
S11307608460848305C0E0EAF8E084818B7F84831D
S1130770E2E3F8E284819581019784839583892B50
S1130780A9F0DF01C281D381E0EAF8E080858883A3
S113079012968D919C911397019612968D939C932A
S11307A0139784818260848384E026C0A2E3B8E244
S11307B01296ED91FC9113978091A808808312966C
S11307C08D919C911397019612968D939C931397F8
S11307D08C9184608C931C96ED91FC911D97589696
S11307E08D919C91599709958250823018F40E94FA
S11307F0FF0202C00E949203DF91CF910895E0EAC4
S1130800F8E0848183608483E2E3F8E280818E7F70
S11308108083138680E00895A2E3B8E28C91877FF9
S11308208C9382E01B968C931B975096ED91FC91D0
S113083051975C968D919C915D970995823019F042
S1130840833021F006C00E94D10208950E94E30281
S113085008950E94FF0308958091A50884FF19C09C
S1130860A2E3B8E25296ED91FC9153975E968D9176
S11308709C915F970995823019F0833021F006C06E
S11308800E94D10208950E94E30208950E94FF038A
S11308900895E2E3F8E28081877F8083A281B381B7
S11308A0CD010196828393838C918093A8088481DF
S11308B09581019784839583892B11F485E00895AC
S11308C083E008958091A50884FF19C0A2E3B8E2EB
S11308D05296ED91FC9153975E968D919C915F9702
S11308E00995823019F0833021F006C00E94D102AC
S11308F008950E94E30208950E94FF030895A2E36D
S1130900B8E28C9184608C931C96ED91FC911D97B8
S113091058968D919C9159970995833039F084307C
S113092041F0823049F40E94D10208950E94E3020A
S113093008950E942C0408950E94FF030895AB01BA
S1130940BC0180E00E944B030895AB01BC0182E02E
S11309500E944B030895E0EAF8E08BE0868381EC83
S1130960838308959091322891FD36C0E2E3F8E242
S11309708183892F847F9EE0928724EF31E0208752
S1130980318782608460808387E493E084879587DD
S1130990108E118E86879787128E138E808B918B83
S11309A0148E158E828B938B168E178E89E493E0AA
S11309B0848B958B10A211A2E0EAF8E08481886010
S11309C084838581816085838581806C858383812F
S11309D0806C838380E0089581E008958091A50868
S11309E082FF07C0E2E3F8E280818E7F808382E0A9
S11309F083878091322880FD17C0E2E3F8E28D7F7F
S1130A0080838FEF8183A0EAB8E015968C911597C7
S1130A10806C15968C93159713968C9113978F73FE
S1130A2013968C938385089581E008959C01909199
S1130A30322892FF09C0E2E3F8E22283338364831D
S1130A407583892F8B7F808308959091322890FD40
S1130A5011C0E2E3F8E291609083882321F081E001
S1130A6080933C2803C082E080933C280E941703B3
S1130A7080E0089581E0089580E00E9425050895AE
S1130A801F920F920FB60F9211242F933F934F93FF
S1130A905F936F937F938F939F93AF93BF93EF93E2
S1130AA0FF930E941703FF91EF91BF91AF919F9124
S1130AB08F917F916F915F914F913F912F910F9003
S1130AC00FBE0F901F90189562E070E00E9416050B
S1130AD060E070E080E090E00E949F0482E008956E
S1130AE062E070E00E94160560E070E080E090E053
S1130AF00E949F0484E008951F93CF93DF9300D056
S1130B001F92CDB7DEB7182F6B83812F0E94B204DA
S1130B108823D9F3BE016F5F7F4F84E695E00E947E
S1130B209F0461E070E0CE0103960E94160560E028
S1130B3070E08FED95E00E94A5040E943C050E94A0
S1130B40EE048130E1F389819A81982789279827D7
S1130B502396CDBFDEBFDF91CF911F9108951F93E0
S1130B60CF93DF9300D01F92CDB7DEB7182F6983E0
S1130B704A835B83812F0E94B2048823D9F3BE0188
S1130B806E5F7F4F80E795E00E949F0461E070E014
S1130B90CE0101960E94160560E070E08FED95E0AD
S1130BA00E94A5040E943C050E94EE048130E1F3FA
S1130BB02396CDBFDEBFDF91CF911F91089583E0CF
S1130BC0089580E00895E0E4F8E08DE695E08087FC
S1130BD0918780EC868384E298E2809365289093E1
S1130BE0662880E00895E0E4F8E0948195FFFDCF65
S1130BF08093420808950E94F30580E090E00895F0
S1130C005058BB27AA270E9418060C9433070E9449
S1130C10250738F00E942C0720F039F49F3F19F47F
S1130C2026F40C9422070EF4E095E7FB0C941C07C1
S1130C30E92F0E94440758F3BA1762077307840721
S1130C40950720F079F4A6F50C9466070EF4E09568
S1130C500B2EBA2FA02D0B01B90190010C01CA0172
S1130C60A0011124FF27591B99F0593F50F4503E1D
S1130C7068F11A16F040A22F232F342F4427585F0F
S1130C80F3CF469537952795A795F0405395C9F727
S1130C907EF41F16BA0B620B730B840BBAF09150DF
S1130CA0A1F0FF0FBB1F661F771F881FC2F70EC07E
S1130CB0BA0F621F731F841F48F487957795679551
S1130CC0B795F7959E3F08F0B0CF9395880F08F03D
S1130CD09927EE0F9795879508950E9481060C94A5
S1130CE033070E942C0758F00E94250740F029F48E
S1130CF05F3F29F00C941C0751110C9467070C9466
S1130D0022070E94440768F39923B1F3552391F312
S1130D10951B550BBB27AA2762177307840738F066
S1130D209F5F5F4F220F331F441FAA1FA9F335D0C3
S1130D300E2E3AF0E0E832D091505040E695001C77
S1130D40CAF72BD0FE2F29D0660F771F881FBB1F31
S1130D50261737074807AB07B0E809F0BB0B802D0F
S1130D60BF01FF2793585F4F3AF09E3F510578F03B
S1130D700C941C070C9467075F3FE4F3983ED4F38C
S1130D80869577956795B795F7959F5FC9F7880F0F
S1130D90911D9695879597F90895E1E0660F771F61
S1130DA0881FBB1F621773078407BA0720F0621BF2
S1130DB0730B840BBA0BEE1F88F7E0950895E89443
S1130DC009C097FB3EF490958095709561957F4F8F
S1130DD08F4F9F4F9923A9F0F92F96E9BB2793953D
S1130DE0F695879577956795B795F111F8CFFAF44D
S1130DF0BB0F11F460FF1BC06F5F7F4F8F4F9F4F7E
S1130E0016C0882311F096E911C0772321F09EE8DB
S1130E10872F762F05C0662371F096E8862F70E041
S1130E2060E02AF09A95660F771F881FDAF7880F1B
S1130E309695879597F9089597F99F6780E870E0EC
S1130E4060E008959FEF80EC089500240A9416163C
S1130E50170618060906089500240A9412161306A4
S1130E60140605060895092E0394000C11F4882332
S1130E7052F0BB0F40F4BF2B11F460FF04C06F5F4E
S1130E807F4F8F4F9F4F089557FD9058440F551F24
S1130E9059F05F3F71F04795880F97FB991F61F0F8
S1130EA09F3F79F087950895121613061406551F6F
S1130EB0F2CF4695F1DF08C0161617061806991FDB
S1130EC0F1CF86957105610508940895E894BB27D0
S1130ED066277727CB0197F908950E9480070C9421
S1130EE033070E94250738F00E942C0720F0952331
S1130EF011F00C941C070C94220711240C9467071E
S1130F000E94440770F3959FC1F3950F50E0551F5D
S1130F10629FF001729FBB27F00DB11D639FAA274A
S1130F20F00DB11DAA1F649F6627B00DA11D661F99
S1130F30829F2227B00DA11D621F739FB00DA11DBA
S1130F40621F839FA00D611D221F749F3327A00D74
S1130F50611D231F849F600D211D822F762F6A2F10
S1130F6011249F5750409AF0F1F088234AF0EE0F75
S1130F70FF1FBB1F661F771F881F91505040A9F7A2
S1130F809E3F510580F00C941C070C9467075F3F4B
S1130F90E4F3983ED4F3869577956795B795F795DE
S1130FA0E7959F5FC1F7FE2B880F911D9695879556
S1130FB097F90895A0E1B0E0E0EEF7E00C94570B48
S1130FC07C011B016A01FC0116821782838181FF67
S1130FD044C39E012F5F3F4F3901F7019381F10113
S1130FE093FD859193FF81911F01882309F431C3F7
S1130FF0853239F493FD859193FF81911F018532E8
S113100039F4B70190E00E94760C56016501E5CFF2
S113101010E0512C912CFFE1F915D8F08B3279F0C6
S113102038F4803279F08332A1F4F92DF0612EC0C6
S11310308D3261F0803369F4292D21602DC0392D62
S11310403260932E892D8460982E2AC0E92DE860A1
S113105015C097FC2DC020ED280F2A3088F496FE89
S113106006C03AE0139F200D1124122F19C08AE004
S1131070589E200D1124522EE92DE0629E2E10C0A0
S11310808E3231F496FCE5C2F92DF0649F2E08C02F
S11310908C3621F4292D2068922E02C0883641F422
S11310A0F10193FD859193FF81911F018111B3CFCC
S11310B09BEB980F933020F4992D9061805E07C0CC
S11310C09BE9980F933008F066C1992D9F7E96FF97
S11310D016E09F73992E853619F49064992E08C0F2
S11310E0863621F4392F3068932E02C01111115025
S11310F097FE07C01C3350F444244394410E27E068
S11311000BC0183038F027E017E005C027E09CE357
S1131110492E02C0212F412C560184E0A80EB11C97
S1131120F6016081718182819381042DA3010E9463
S1131130880B6C01F981FC87F0FF02C0F3FF06C045
S113114091FC06C092FE06C000E205C00DE203C099
S11311500BE201C000E08C858C7019F001115AC2B9
S11311609BC297FE10C04C0CFC85F4FF04C08A811E
S1131170813309F44A94141474F528E0241578F59D
S113118088E0482E2CC096FC2AC0812F90E08C1554
S11311909D059CF03CEFC3163FEFD30674F0892DF8
S11311A08068982E0AC0E2E0F0E0EC0FFD1FE10F2A
S11311B0F11D8081803319F411501111F4CF97FE81
S11311C00EC044244394410E812F90E0C816D906E2
S11311D02CF41C1904C04424439401C010E097FE6D
S11311E006C01C141D0434F4C601019605C085E034
S11311F090E002C081E090E001110196112331F0EA
S1131200212F30E02F5F3F4F820F931F252D30E0B9
S11312108217930714F4581A01C0512C892D897030
S113122049F4552039F0B70180E290E00E94760C31
S11312305A94F7CF002329F0B701802F90E00E9441
S1131240760C93FC09C0552039F0B70180E390E097
S11312500E94760C5A94F7CF97FE4CC04601D7FEF5
S113126002C0812C912CC60188199909F301E80F59
S1131270F91FED87FE879601241931092F87388BD2
S1131280012F10E01195019511093FEF8316930684
S113129029F4B7018EE290E00E94760CC814D904B8
S11312A04CF08F8598898815990524F4ED85FE8581
S11312B0818101C080E3F1E08F1A91082D853E857C
S11312C02F5F3F4F2D873E87801691062CF0B70184
S11312D090E00E94760CD9CFC814D90441F49A81C5
S11312E0963320F4953319F43C8534FF81E3B70138
S11312F090E04EC08A81813319F09C859F7E9C8743
S1131300B70190E00E94760C111105C094FC18C03E
S113131085E690E017C0B7018EE290E00E94760C5B
S11313201E5F82E001E0080FF301E80FF11D8081E8
S1131330B70190E00E94760C802F0113F3CFE6CF23
S113134085E490E0B7010E94760CD7FC06C0C11476
S1131350D10441F4EC85E4FF05C0D194C194D108D3
S11313608DE201C08BE2B70190E00E94760C80E32D
S11313702AE0C216D1042CF08F5FFAE0CF1AD1080C
S1131380F7CFB70190E00E94760CB701C601C09672
S11313900E94760C54C1833631F0833779F083355B
S11313A009F056C020C0560132E0A30EB11CF6016C
S11313B08081898301E010E0630112C05601F2E0EC
S11313C0AF0EB11CF601C080D18096FE03C0612F20
S11313D070E002C06FEF7FEFC6010E946B0C8C01BE
S11313E0F92DFF7714C0560122E0A20EB11CF601BC
S11313F0C080D18096FE03C0612F70E002C06FEF01
S11314007FEFC6010E94600C8C01F92DF0689F2EBD
S1131410F3FD1AC0852D90E008171907A8F4B70149
S113142080E290E00E94760C5A94F4CFF60197FC87
S1131430859197FE81916F01B70190E00E94760C2F
S113144051105A94015011090115110579F7F7C08B
S1131450843611F0893661F5560197FE09C024E0FF
S1131460A20EB11CF60160817181828193810AC050
S1131470F2E0AF0EB11CF60160817181072E000C01
S1131480880B990BF92DFF769F2E97FF09C0909535
S11314908095709561957F4F8F4F9F4FF0689F2E79
S11314A02AE030E0A3010E94C80CC82EC6183FC031
S11314B0092D853721F40F7E2AE030E01DC0097F15
S11314C08F3691F018F4883559F0C3C0803719F07D
S11314D0883711F0BEC0006104FF09C0046007C072
S11314E094FE08C0066006C028E030E005C020E194
S11314F030E002C020E132E0560107FF09C084E079
S1131500A80EB11CF601608171818281938108C0AB
S1131510F2E0AF0EB11CF6016081718180E090E0D1
S1131520A3010E94C80CC82EC6180F77902E96FEF1
S11315300BC0092D0E7FC11650F494FE0AC092FC14
S113154008C0092D0E7E05C0DC2C092D03C0DC2C3F
S113155001C0D12E04FF0DC0FE01EC0DF11D8081F0
S1131560803311F4097E09C002FF06C0D394D394DA
S113157004C0802F867809F0D39403FD11C000FFC6
S113158006C01C2DD51480F4150D1D190DC0D514DD
S113159058F4B70180E290E00E94760CD394F7CF20
S11315A0D51410F45D1801C0512C04FF10C0B7010C
S11315B080E390E00E94760C02FF17C001FD03C097
S11315C088E790E002C088E590E0B7010CC0802F66
S11315D0867859F001FF02C08BE201C080E207FD6A
S11315E08DE2B70190E00E94760CC11638F4B70181
S11315F080E390E00E94760C1150F7CFCA94F30177
S1131600EC0DF11D8081B70190E00E94760CC110B1
S1131610F5CF15C0F4E0F51560F584E0581A93FE93
S11316201FC0011127C02C8523FF2AC000E910E048
S1131630392D3071932EF8018491811124C05520E5
S113164009F4E4CCB70180E290E00E94760C5A944D
S1131650F6CFF7018681978126C08FEF9FEF23C0D5
S1131660B70180E290E00E94760C5A945110F8CFB2
S1131670D8CF512CB701802F90E00E94760CD3CFA5
S113168004E910E0D5CF91108052B70190E00E9498
S1131690760C0F5F1F4FCFCF23E0251510F483E0A6
S11316A0BDCF512CC0CF6096E2E10C94700B2F9209
S11316B03F924F925F926F927F928F929F92AF92DE
S11316C0BF92CF92DF92EF92FF920F931F93CF932B
S11316D0DF93CDB7DEB7CA1BDB0BCDBFDEBF0994EA
S11316E02A88398848885F846E847D848C849B84AE
S11316F0AA84B984C884DF80EE80FD800C811B81BC
S1131700AA81B981CE0FD11DCDBFDEBFED010895F1
S1131710283008F027E03327DA01990F311D87FDBF
S1131720916000966105710539F432602E5F3D9336
S113173030E32A95E1F708959F3F30F08038710532
S1131740610509F03C5F3C5F3D93913008F080688F
S1131750911DDF93CF931F930F93FF92EF92192F55
S1131760987F9695E92F96959695E90FFF27EE5069
S1131770FF4F99273327EE24FF24A701E7010590A3
S11317800894079428F4360FE71EF81E491F511DCC
S1131790660F771F881F991F0694A1F70590079479
S11317A028F4E70EF81E491F561FC11D770F881F26
S11317B0991F661F0694A1F70590079428F4F80E64
S11317C0491F561FC71FD11D880F991F661F771FFA
S11317D00694A1F70590079420F4490F561FC71FDC
S11317E0D81F990F661F771F881F0694A9F7849145
S11317F01095177041F0D695C79557954795F7946E
S1131800E7941A95C1F7E8E9F0E06894159015910A
S113181035916591959105907FE27395E118F10AF0
S1131820430B560BC90BD009C0F7E10CF11E431F43
S1131830561FC91FD01D7EF4703311F48A95E6CF6C
S1131840E894015030F0080F0AF40027021708F456
S1131850202F2395022F7A3328F079E37D932A955C
S1131860E9F710C07D932A9589F6069497956795B4
S1131870379517951794E118F10A430B560BC90BCA
S1131880D00998F023957E9173957A3308F070E32C
S11318907C932013B8F77E9170617D9330F083952B
S11318A071E37D9370E32A95E1F71124EF90FF90A3
S11318B00F911F91CF91DF91992787FD90950895FE
S11318C0FC010590615070400110D8F78095909507
S11318D08E0F9F1F0895FC0161507040019001100C
S11318E0D8F7809590958E0F9F1F08950F931F939F
S11318F0CF93DF93FB01238121FD03C08FEF9FEF83
S11319002CC022FF16C0468157812481358142179D
S1131910530744F4A081B1819D012F5F3F4F208381
S113192031838C93268137812F5F3F4F2683378302
S113193014C08B01EC01FB010084F185E02D0995B5
S1131940892BE1F6D80116968D919C9117970196F3
S113195016968D939C931797CE01DF91CF911F918B
S11319600F910895A0E0B0E0E8EBFCE00C94670B65
S1131970AE014B5F5F4FFA0161917191AF018091AC
S11319806528909166280E94DA07E2E00C94800BA7
S1131990FA01AA27283051F1203181F1E8946F939C
S11319A06E7F6E5F7F4F8F4F9F4FAF4FB1E03ED042
S11319B0B4E03CD0670F781F891F9A1FA11D680FE0
S11319C0791F8A1F911DA11D6A0F711D811D911D13
S11319D0A11D20D009F468943F912AE0269F112488
S11319E03019305D3193DEF6CF010895462F4770EC
S11319F0405D4193B3E00FD0C9F7F6CF462F4F7047
S1131A00405D4A3318F0495D31FD4052419302D0A4
S1131A10A9F7EACFB4E0A69597958795779567954A
S1131A20BA95C9F700976105710508959B01AC014A
S1131A300A2E06945795479537952795BA95C9F771
S1131A40620F731F841F951FA01D0895F894FFCF84
S1131A5042757320566F6C746167653A20202025A7
S1131A602E326620560D0A005368756E7420566F28
S1131A706C746167653A202020252E3266206D56ED
S1131A800D0A004C6F616420566F6C746167653A8F
S1131A90202020252E326620560D0A0043757272CE
S1131AA0656E743A202020252E3266206D410D0A81
S1131AB000506F7765723A202020252E3266206D03
S1091AC0570D0A0D0A0097
S1131AC6C902D102E3022C04A2036204E002EE027C
S1131AD6DD02FF03F102F8029203FF02B9020C04CD
S1131AE6700306030000000200000000FB0500006E
S1051AF60000EA
S9030000FC
